S019000053697269757320426C61636B20546573742E73726563CF
S113000071C000008EC000008CC000008AC00000D7
S113001088C0000086C0000084C0000082C00000C8
S113002080C000007EC000007CC000007AC00000D8
S113003078C0000076C0000074C0000072C00000E8
S113004070C000006EC000006CC000006AC00000F8
S113005068C0000066C0000064C00000FDC000006D
S113006060C00000CCC000005CC000005AC00000AA
S113007058C0000056C0000054C0000052C0000028
S113008050C000004EC000004CC000004AC0000038
S113009048C0000046C0000044C0000042C0000048
S11300A040C000003EC000003CC000003AC0000058
S11300B038C0000036C0000034C0000032C0000068
S11300C030C000002EC000002CC0000080C0000022
S11300D028C0000026C0000024C0000022C0000088
S11300E020C0000011241FBECFEFD1E2DEBFCDBF80
S11300F000E00CBF12E0A0E0B2E0E8E1F7E000E0CD
S11301000BBF02C007900D92AA36B107D9F722E0BF
S1130110AAE6B2E001C01D92AC36B207E1F702D004
S1130120F9C26ECF8CD0A3D23BD187E690E0DFD06A
S11301300AD184E690E0A9D069D180E092E0EFD0C2
S11301408DE192E019D1C6E0D1E082B18F5F82B92E
S1130150888190E09AD080E03BD19C013695279528
S113016036952795ABE7B4E1C6D296958795CCD161
S11301708CB1807F01F140E050E060E070E080E00D
S113018090E051D1649B03C08FEF93E063D1659BF2
S113019003C08FEF93E076D1669B03C08FEF93E0AB
S11301A089D1679BD2CF4FEF53E06FEF73E08FEFAE
S11301B093E039D1CACF81E00BD17C0182E008D130
S11301C08C0183E005D1A701B8012DD1BECF1F92C8
S11301D00F920FB60F9211240BB60F928F93EF93D9
S11301E0FF93E6EDF0E080818083FF91EF918F91A2
S11301F00F900BBE0F900FBE0F901F9018951F927B
S11302000F920FB60F9211240BB60F928F93EF93A8
S1130210FF93E6ECF0E080818083FF91EF918F9172
S11302200F900BBE0F900FBE0F901F90189583E098
S113023084BD85E085BD81E080936E0008958FEFD5
S113024081B9109207011DB887E283BB88E78093C8
S11302500101EDDF789408951F920F920FB60F926B
S113026011248F939F9382EB86BD80916A029091B3
S11302706B02019790936B0280936A029F918F9116
S11302800F900FBE0F901F90189590936B02809360
S11302906A02892B31F080916A0290916B02892B5A
S11302A0D1F70895CF93DF931F921F92CDB7DEB796
S11302B09A83898389819A81892BA1F000000000A7
S11302C0000000000000000000000000000000002A
S11302D0000089819A8101979A83898389819A810F
S11302E0892B61F70F900F90DF91CF91089528E942
S11302F02093D10026E02093D2009093D5008093E0
S1130300D40008958093D600E0EDF0E0808186FF6C
S1130310FDCFE0EDF0E080818064808308951F9339
S1130320CF93DF93EC018881882349F010E0EADF62
S11303301F5FFE01E10FF11D80818111F8CFDF9174
S1130340CF911F91089588E98093C10086E080933E
S1130350C2001092C50087E68093C400089580937C
S1130360C600E0ECF0E0808186FFFDCFE0ECF0E039
S113037080818064808308951F93CF93DF93EC0181
S11303808881882349F010E0EADF1F5FFE01E10F56
S1130390F11D80818111F8CFDF91CF911F910895D4
S11303A080E480937C008FE080937E00EAE7F0E0B5
S11303B087EA808310927B008081806480838081BF
S11303C084FFFDCFEAE7F0E080818F7E808308958B
S11303D0ECE7F0E090E490839081892B8083EAE756
S11303E0F0E0808180648083808184FFFDCF81E0A0
S11303F090E04BDF8091780020917900EAE7F0E00B
S113040090819F7E908390E0922B08958EEF80934D
S1130410A0008BE18093A10083E08093A7008FEF7D
S11304208093A60008952FEF33E0F901E81BF90B40
S1130430C901861B970B241B350BF093A900E0938D
S1130440A8009093AB008093AA003093AD00209352
S1130450AC000895009731F0E2E0F1E020812860DB
S1130460208305C0E2E0F1E02081277F20832FEF85
S113047033E0A901481B590BCA019093A90040938A
S1130480A8000895009731F0E2E0F1E020812061B6
S1130490208305C0E2E0F1E020812F7E20832FEF4E
S11304A033E0A901481B590BCA019093AB00409358
S11304B0AA000895009731F0E2E0F1E02081206283
S11304C0208305C0E2E0F1E020812F7D20832FEF1F
S11304D033E0A901481B590BCA019093AD00409326
S11304E0AC000895882311F0A09A0895A098089567
S11304F0882311F0A19A0895A1980895882311F0F2
S1130500A29A0895A2980895811103C083E084BD3E
S1130510089593E294BD8B3008F08AE0880F880F29
S1130520880F8E5488BD0895EF92FF920F931F9306
S1130530CF93DF937C01EB0181E0D4DF05E010E091
S113054080E0D6DF81E0D4DF0150110901151105E7
S1130550B9F780E0C7DF80E0CBDF81E0C9DF83E467
S1130560E816F10419F480E0BDDF02C081E0BADFCF
S113057080E0BEDF81E0BCDF80E0B4DF80E0B8DF94
S113058081E0B6DF04E010E080E0B2DFC0FF03C02A
S113059081E0A8DF02C080E0A5DFD695C79580E0A2
S11305A0A7DF81E0A5DF015011090115110561F7ED
S11305B080E098DF04E010E080E09ADF81E098DFDB
S11305C00150110901151105B9F704E010E080E0AC
S11305D08FDFC0FF03C081E085DF02C080E082DFDF
S11305E0D695C79580E084DF81E082DF0150110950
S11305F00115110561F780E075DFC4E0D0E080E00B
S113060077DF81E075DF21972097C9F7C2E3D0E057
S113061081E068DF21972097D9F782E390E042DEFA
S1130620DF91CF911F910F91FF90EF9008951F9349
S1130630CF93DF93EA0190E2899F600D11246068F3
S113064070E083E490E070DF6881662361F010E07D
S11306501F5F70E084E490E067DFFE01E10FF11DAD
S113066060816111F5CFDF91CF911F91089581E0F1
S11306703FDF80E037DF80E041DF82E090E005DEAD
S113068081E03CDF8AE090E000DE64E370E083E434
S113069090E04ADF69E070E083E490E045DF60E3E6
S11306A070E083E490E040DF6CE070E083E490E08D
S11306B03BDF61E070E083E490E036DF81E090E0CE
S11306C0E4DD67E070E083E490E02EDF4BE352E08A
S11306D064E080E0ACDF48E452E068E081E0A7DF5A
S11306E04DE452E062E082E0A2DF4EE552E065E0D4
S11306F083E09DCF0895A29FB001B39FC001A39F43
S1130700700D811D1124911DB29F700D811D112446
S10B0710911D0895F894FFCF38
S113071853697269757320426C61636B205253325A
S11307283332206765737461727465740053697237
S113073869757320426C61636B20616E2055534266
S1130748206765737461727465740053697269759E
S11307587320426C61636B002D2D2D2D0042656C56
S113076869766520696E206D616769632C00796F0D
S10D077875206D7567676C652E002F
S9030000FC
